:100000000C942A000C9447000C9447000C94470071
:100010000C9447000C9447000C9447000C94470044
:100020000C9447000C9447000C9447000C94470034
:100030000C9447000C9471070C9447000C944700F3
:100040000C9447000C9447000C9447000C94470014
:100050000C94470011241FBECFE5D8E0DEBFCDBF12
:1000600011E0A8E6B1E001C01D92AD36B107E1F79D
:1000700011E0A0E6B0E0E4EFF4E102C005900D92DB
:10008000A836B107D9F70E94090A0C94780A0C9493
:100090000000EF92FF920F931F937B018C0120E0F1
:1000A00030E040E05FE40E94190388238CF0C8012F
:1000B000B70120E030E040E05FE40E94C1010E940F
:1000C000A7039B01AC01205030404040504806C07F
:1000D000C801B7010E94A7039B01AC01B901CA0185
:1000E0001F910F91FF90EF900895A0E0B0E0EBE733
:1000F000F0E00C94410ADC012B01FA019C91923052
:1001000008F439C1EB018881823008F433C194309E
:1001100069F4843009F02FC111969C91119789815F
:10012000981709F428C1A0E6B0E025C1843009F48D
:1001300021C18230A9F4923009F01DC19A01AD01AC
:1001400088E0EA010990AE01E90109929E0181501F
:10015000C1F7E201898111969C918923818308C1AD
:10016000923009F407C112962D903C901397EB0141
:100170008A819B811496AD90BD90CD90DC901797AD
:10018000EC80FD800E811F819101281B390BB90184
:1001900037FF04C066277727621B730B6032710537
:1001A0000CF061C0121613066CF537014801062EDB
:1001B00004C096948794779467940A94D2F721E0C8
:1001C00030E040E050E004C0220F331F441F551FB1
:1001D0006A95D2F721503040404050402E213F21B7
:1001E00040235123211531054105510521F021E01E
:1001F00030E040E050E079018A01E628F72808293C
:1002000019293CC0232BD1F1260E371E350146019A
:10021000062E04C096948794779467940A94D2F734
:1002200021E030E040E050E004C0220F331F441FC3
:10023000551F6A95D2F721503040404050402A2146
:100240003B214C215D21211531054105510521F04E
:1002500021E030E040E050E059016A01A628B728CB
:10026000C828D9280BC0821593052CF01C01AA249C
:10027000BB24650103C0EE24FF24870111969C91E5
:10028000D20111968C91981709F445C0992339F041
:10029000A80197012A193B094C095D0906C0A6016E
:1002A00095012E193F09400B510B57FD08C01182D3
:1002B0003382228224833583468357831DC081E0A5
:1002C00081833382228288279927DC01821B930B4A
:1002D000A40BB50B84839583A683B7830DC0220F2F
:1002E000331F441F551F24833583468357838281E0
:1002F000938101979383828324813581468157813D
:10030000DA01C9010197A109B1098F5F9F4FAF4F72
:10031000BF4328F30BC0918333822282EA0CFB1C7B
:100320000C1D1D1DE482F5820683178383E0808304
:10033000248135814681578157FF1AC0C901AA27F8
:1003400097FDA095BA2F81709070A070B0705695EF
:10035000479537952795822B932BA42BB52B848318
:100360009583A683B7838281938101969383828349
:10037000DF0101C0D201CD01CDB7DEB7E2E10C94BF
:100380005D0AA0E2B0E0E7ECF1E00C944D0A69836D
:100390007A838B839C832D833E834F835887E9E048
:1003A000EE2EF12CEC0EFD1ECE010196B7010E943F
:1003B0001F058E010F5E1F4FCE010596B8010E94EA
:1003C0001F058A8991E089278A8BC701B801AE0190
:1003D000475E5F4F0E9475000E944A04A096E6E0C7
:1003E0000C94690AA0E2B0E0E8EFF1E00C944D0A49
:1003F00069837A838B839C832D833E834F835887C5
:10040000F9E0EF2EF12CEC0EFD1ECE010196B701A6
:100410000E941F058E010F5E1F4FCE010596B80189
:100420000E941F05C701B801AE01475E5F4F0E94E1
:1004300075000E944A04A096E6E00C94690AA0E2C6
:10044000B0E0E5E2F2E00C94410A69837A838B83A1
:100450009C832D833E834F835887CE010196BE0136
:10046000675F7F4F0E941F05CE010596BE016F5E3C
:100470007F4F0E941F059985923088F089898230CC
:10048000C8F0943019F4823051F404C0843029F457
:10049000923081F480E690E0C6C0923049F420E0CA
:1004A0009A858A89981321E02A87CE010996BBC0D4
:1004B000823049F420E09A858A89981321E02A8BBA
:1004C000CE014196B0C02D843E844F8458886D88FB
:1004D0007E888F88988CEE24FF248701AA24BB2471
:1004E000650140E050E060E070E0E0E0F0E0C10174
:1004F00081709070892BE9F0E60CF71C081D191D1E
:100500009A01AB012A0D3B1D4C1D5D1D80E090E062
:10051000A0E0B0E0E614F7040805190520F481E036
:1005200090E0A0E0B0E0BA01A901480F591F6A1F8E
:100530007B1FAA0CBB1CCC1CDD1C97FE08C081E0F5
:1005400090E0A0E0B0E0A82AB92ACA2ADB2A3196B6
:10055000E032F10549F0660C771C881C991C569412
:10056000479437942794C3CFFA85EA892B893C892D
:100570008B859C85280F391F2E5F3F4F17C0CA01FE
:1005800081709070892B61F016950795F794E79428
:1005900080E090E0A0E0B0E8E82AF92A0A2B1B2BC3
:1005A00076956795579547952F5F3F4F77FDE7CF36
:1005B0000CC0440F551F661F771F17FD4160EE0CDE
:1005C000FF1C001F111F21503040403090E05907A0
:1005D00090E0690790E4790760F32B8F3C8FDB0193
:1005E000CA018F779070A070B07080349105A1051A
:1005F000B10561F447FD0AC0E114F10401051105DC
:1006000029F0405C5F4F6F4F7F4F40781A8EFE1786
:1006100011F081E08A8F4D8F5E8F6F8F78A383E01A
:10062000898FCE0149960E944A04A096E2E10C947B
:100630005D0AA8E1B0E0EFE1F3E00C944D0A6983B4
:100640007A838B839C832D833E834F83588789E0F5
:10065000E82EF12CEC0EFD1ECE010196B7010E9492
:100660001F058E010F5E1F4FCE010596B8010E9437
:100670001F058985823040F08989823028F0C701C2
:10068000B8010E94970501C08FEF6896E6E00C94D0
:10069000690AA8E0B0E0EFE4F3E00C944A0A9B0199
:1006A000AC0183E08983DA01C9018827B7FD83950E
:1006B0009927AA27BB27B82E2115310541055105D9
:1006C00019F482E089833AC08823A9F0203080E0C1
:1006D000380780E0480780E8580729F460E070E0B8
:1006E00080E09FEC30C0EE24FF248701E21AF30A79
:1006F000040B150B02C079018A018EE1C82ED12CA2
:10070000DC82CB82ED82FE820F831887C801B7019D
:100710000E94FB0301971816190684F4082E04C0E2
:10072000EE0CFF1C001F111F0A94D2F7ED82FE820F
:100730000F831887C81AD90ADC82CB82BA82CE010D
:1007400001960E944A042896E9E00C94660AACE0FF
:10075000B0E0EDEAF3E00C94510A69837A838B836D
:100760009C83CE010196BE016B5F7F4F0E941F05E7
:100770008D81823061F1823050F1843021F48E819C
:10078000882351F12EC02F81388537FD20C06E811E
:100790002F3131051CF06623F9F023C08EE190E083
:1007A000821B930B29853A854B855C8504C0569541
:1007B0004795379527958A95D2F76623B1F05095DE
:1007C0004095309521953F4F4F4F5F4F0EC020E031
:1007D00030E040E050E009C02FEF3FEF4FEF5FE720
:1007E00004C020E030E040E050E8B901CA012C9696
:1007F000E2E00C946D0AEF92FF920F931F937B013E
:100800008C0180E0E81680E0F80681E0080780E0CF
:10081000180788F48FEFE816F1040105110531F08F
:1008200028F088E090E0A0E0B0E017C080E090E021
:10083000A0E0B0E012C080E0E81680E0F80680E0BA
:10084000080781E0180728F088E190E0A0E0B0E018
:1008500004C080E190E0A0E0B0E020E230E040E0C1
:1008600050E0281B390B4A0B5B0B04C0169507950B
:10087000F794E7948A95D2F7F701E859FF4F808102
:10088000281B310941095109C9011F910F91FF909E
:10089000EF900895DF92EF92FF920F931F93FC0168
:1008A000E480F58006811781D1808081823048F410
:1008B00080E090E0A0E1B0E0E82AF92A0A2B1B2BA7
:1008C000A5C0843009F49FC0823021F4EE24FF24B7
:1008D000870105C0E114F1040105110519F4E0E0F8
:1008E000F0E096C0628173819FEF623879070CF067
:1008F0005BC022E83FEF261B370B2A3131052CF075
:1009000020E030E040E050E02AC0B801A701022E0C
:1009100004C076956795579547950A94D2F781E07C
:1009200090E0A0E0B0E004C0880F991FAA1FBB1F91
:100930002A95D2F70197A109B1098E219F21A02301
:10094000B1230097A105B10521F081E090E0A0E07E
:10095000B0E09A01AB01282B392B4A2B5B2BDA0133
:10096000C9018F779070A070B07080349105A10597
:10097000B10539F427FF09C0205C3F4F4F4F5F4F4F
:1009800004C0215C3F4F4F4F5F4FE0E0F0E020306C
:10099000A0E03A07A0E04A07A0E45A0710F0E1E01F
:1009A000F0E079018A0127C06038710564F5FB0128
:1009B000E158FF4FD801C7018F779070A070B070D9
:1009C00080349105A105B10539F4E7FE0DC080E43E
:1009D00090E0A0E0B0E004C08FE390E0A0E0B0E0E1
:1009E000E80EF91E0A1F1B1F17FF05C01695079575
:1009F000F794E794319687E016950795F794E79476
:100A00008A95D1F705C0EE24FF248701EFEFF0E0CF
:100A10006E2F679566276795902F9F77D794DD2473
:100A2000D7948E2F8695492F462B582F5D29B701D5
:100A3000CA011F910F91FF90EF90DF900895FC0184
:100A4000DB01408151812281622F6F7770E0221F8C
:100A50002227221F9381892F880F822B282F30E095
:100A6000991F9927991F11969C931197211531056C
:100A7000A9F5411551056105710511F482E037C0F2
:100A800082E89FEF13969C938E9312979A01AB0185
:100A900067E0220F331F441F551F6A95D1F783E08B
:100AA0008C930DC0220F331F441F551F12968D913A
:100AB0009C911397019713969C938E9312972030D5
:100AC00080E0380780E0480780E4580758F3149620
:100AD0002D933D934D935C93179708952F3F3105C8
:100AE00079F4411551056105710519F484E08C9381
:100AF000089564FF03C081E08C9312C01C9210C063
:100B00002F57304013963C932E93129783E08C938B
:100B100087E0440F551F661F771F8A95D1F77064D1
:100B200014964D935D936D937C93179708951F933F
:100B3000DC01FB019C91923008F447C08081823037
:100B400008F443C0943051F411961C91843099F507
:100B50008181682F70E0611B71093FC0843021F0F2
:100B6000923031F48230B9F18181882389F12DC02E
:100B700011961C9111978230F1F081811817D9F4E8
:100B800012962D913C91139782819381821793073E
:100B900094F028173907BCF014968D919D910D9013
:100BA000BC91A02D248135814681578128173907B2
:100BB0004A075B0718F4112341F00AC08217930714
:100BC000A407B50740F4112319F061E070E005C0F7
:100BD0006FEF7FEF02C060E070E0CB011F910895DE
:100BE000FC0197B180818295880F880F807C9F736C
:100BF000892B87B996B1818180689877892B86B9CE
:100C0000089597B1907E97B997B18770892B87B96E
:100C1000369A349BFECF349A24B135B1C901089578
:100C2000683050F4843040F4813029F1813028F06C
:100C3000823079F1833081F00895413009F44DC05C
:100C40002AB381E090E002C0880F991F6A95E2F70D
:100C5000809582238ABB0895413009F449C021B3AD
:100C600081E090E002C0880F991F6A95E2F78095B5
:100C7000822381BB0895413029F127B381E090E0C0
:100C800002C0880F991F6A95E2F78095822387BB7F
:100C90000895413061F024B381E090E002C0880FF4
:100CA000991F6A95E2F78095822384BB089524B347
:100CB00081E090E002C0880F991F6A95E2F7282B27
:100CC00024BB089527B381E090E002C0880F991FEC
:100CD0006A95E2F7282B27BB08952AB381E090E0BC
:100CE00002C0880F991F6A95E2F7282B2ABB089546
:100CF00021B381E090E002C0880F991F6A95E2F766
:100D0000282B21BB0895683050F4843040F48130A2
:100D100029F1813028F0823079F1833081F0089513
:100D2000413009F44DC02BB381E090E002C0880F40
:100D3000991F6A95E2F7809582238BBB0895413015
:100D400009F449C022B381E090E002C0880F991FE6
:100D50006A95E2F78095822382BB0895413029F19C
:100D600028B381E090E002C0880F991F6A95E2F7EE
:100D70008095822388BB0895413061F025B381E0DE
:100D800090E002C0880F991F6A95E2F78095822350
:100D900085BB089525B381E090E002C0880F991FBC
:100DA0006A95E2F7282B25BB089528B381E090E0EF
:100DB00002C0880F991F6A95E2F7282B28BB089577
:100DC0002BB381E090E002C0880F991F6A95E2F78B
:100DD000282B2BBB089522B381E090E002C0880F3E
:100DE000991F6A95E2F7282B22BB0895683050F4CA
:100DF000843040F48130D1F0813030F08230F9F02D
:100E0000833059F080E0089589B390E002C0959551
:100E100087956A95E2F78170089580B390E002C0EB
:100E2000959587956A95E2F78170089586B390E06D
:100E300002C0959587956A95E2F78170089583B30E
:100E400090E002C0959587956A95E2F781700895C4
:100E5000843040F4813049F0813028F0823049F00C
:100E6000833029F008956ABB089567BB089561BB7C
:100E7000089564BB0895843040F4813049F0813096
:100E800028F0823049F0833029F008956BBB089533
:100E900068BB089562BB089565BB0895843040F433
:100EA000813051F0813030F0823051F0833031F0B8
:100EB00080E0089589B3089586B3089580B30895B6
:100EC00083B3089512BE8CBFBB9A8AE683BF089590
:100ED00012BE1CBE13BE08959093690180936801F1
:100EE00008951F920F920FB60F9211242F933F93E4
:100EF0004F935F936F937F938F939F93AF93BF9322
:100F0000EF93FF93E0916801F0916901309709F048
:100F10000995FF91EF91BF91AF919F918F917F9133
:100F20006F915F914F913F912F910F900FBE0F9056
:100F30001F9018959B01AC0182E08BB988E98AB9B2
:100F400086E880BD220F331F441F551F220F331F19
:100F5000441F551F220F331F441F551F60E472E4C6
:100F60008FE090E00E941F0A2150304030BD29B927
:100F700008955D9BFECF8CB908958CB10895DC0176
:100F8000EC91EE2359F080E05D9BFECFECB98F5FD2
:100F9000FD01E80FF11DE081EE23B1F7089582E035
:100FA00062E040E00E948306089582E062E041E052
:100FB0000E948306089582E062E041E00E941006EC
:100FC00082E062E040E00E948306089580E00E9493
:100FD00001068736910500F18D3C9105F8F021E07E
:100FE00083339207F8F021E089399207C8F021E0B5
:100FF0008F3F9207C8F022E085369207C8F022E0C2
:101000008B3C920798F023E08133920798F0875940
:10101000934090F089E0089580E0089581E008957C
:1010200083E0089582E0089584E0089586E00895BD
:1010300085E0089587E0089588E008958D9A0895E1
:101040001DBC1CBC23EC39E037BD26BD90E09BBD28
:101050008ABD82E88FBD8AE18EBD08951DBC1CBC8F
:1010600017BC16BC1BBC1ABC1FBC1EBC08951F932A
:10107000162F882331F0813091F1823011F11F91C8
:10108000089581E060E040E00E94830681E060E036
:1010900041E00E948306612F70E0882777FD8095EC
:1010A000982F0E94490323E333E343E250E40E9474
:1010B0001F020E944900DC01CB010E9462071F91C0
:1010C000089581E060E040E00E94830681E061E0F5
:1010D00040E00E9483060E9468071F91089561E026
:1010E00041E00E94830681E061E040E0D2CF81E0F0
:1010F00060E041E00E94100681E061E041E00E9472
:10110000100681E060E040E00E94830681E061E03B
:1011100040E00E94830681E063E040E00E94830695
:101120000895DF93CF9300D0CDB7DEB78FB7806837
:101130008FBF60E875E280E090E00E949A078EEF32
:1011400098E00E946C0781E0898383E08A83CE0166
:1011500001960E94F0050E941E080E9477080E94D6
:10116000DB070E94D50780E063E041E00E941006A3
:1011700080E062E041E00E94100680E062E041E031
:101180000E9410060F900F90CF91DF9108958091EB
:101190006C01833328F08B3919F0803A31F00895CF
:1011A00010926B010E94D507089582E080936B0135
:1011B0008BEB0E942008089520E030E049E150E0E8
:1011C000CA010197F1F72F5F3F4F83EC20353807B5
:1011D000B9F780916C01833318F08B3909F00895C9
:1011E00010926B010E94D5078CE70E94200888E8C6
:1011F00093E10197F1F70E942E0808950E94BD0720
:1012000080936C01089580916A01811108950E9474
:10121000E6078430C9F1853068F0873031F18830D5
:10122000B0F08830B1F1893089F780E064E60E943F
:1012300037080895813019F1813090F0823071F1D2
:10124000833021F780E068E20E94370808958530F6
:1012500089F08630D9F680E066E40E943708089568
:1012600080E06AE00E943708089580E060E50E940F
:101270003708089580E06CE30E943708089580E005
:1012800064E10E943708089580E062E30E94370815
:10129000089580E06AE50E943708089580E06EE1D5
:1012A0000E94370808951F9380916A01882389F06E
:1012B00080916C01843128F18832C0F1833308F4C5
:1012C0004AC0873908F461C08B3909F46BC01F919B
:1012D00008950E94E607843009F48CC0853008F434
:1012E00045C0873009F477C0883008F465C088307D
:1012F00009F485C08930E1F680E064E60E94370891
:10130000D7CF10926B0180E063E041E00E9483063A
:1013100080E061E040E00E94830680E062E040E01F
:101320000E94830610926A011F91089510926B012A
:1013300080E063E040E00E94830680E061E040E0FE
:101340000E94830680E062E041E00E9483061092E2
:101350006A011F91089510926B0180E063E040E004
:101360000E94830680E061E041E0D5CF8130E9F161
:10137000813060F1823009F447C0833009F098CFA2
:1013800080E068E20E94370893CF11E010936B0170
:1013900082E060E00E94370810936A010E94CF0744
:1013A0001F91089510926B0182E060E00E9437085F
:1013B00081E080936A018BCF853091F0863009F00F
:1013C00077CF80E066E40E94370872CF80E06AE061
:1013D0000E9437086DCF80E060E50E94370868CF33
:1013E00080E06CE30E94370863CF80E064E10E94F4
:1013F00037085ECF80E062E30E94370859CF80E073
:101400006AE50E94370854CF80E06EE10E943708F9
:101410004FCF0E94910880916B01813041F0813063
:1014200048F40E94530980916B018130C1F70E94FA
:10143000C708F1CF823089F70E94DC08ECCFA1E227
:101440001A2EAA1BBB1BFD010DC0AA1FBB1FEE1F3E
:10145000FF1FA217B307E407F50720F0A21BB30B89
:10146000E40BF50B661F771F881F991F1A9469F705
:1014700060957095809590959B01AC01BD01CF0161
:1014800008952F923F924F925F926F927F928F9228
:101490009F92AF92BF92CF92DF92EF92FF920F9303
:1014A0001F93CF93DF93CDB7DEB7CA1BDB0B0FB60D
:1014B000F894DEBF0FBECDBF09942A8839884888CA
:1014C0005F846E847D848C849B84AA84B984C88460
:1014D000DF80EE80FD800C811B81AA81B981CE0F57
:1014E000D11D0FB6F894DEBF0FBECDBFED0108953C
:0414F000F894FFCF9E
:1014F40000000000000000000001020203030303D7
:10150400040404040404040405050505050505058F
:10151400050505050505050506060606060606066F
:101524000606060606060606060606060606060657
:10153400060606060606060607070707070707073F
:101544000707070707070707070707070707070727
:101554000707070707070707070707070707070717
:101564000707070707070707070707070707070707
:1015740007070707070707070808080808080808EF
:1015840008080808080808080808080808080808D7
:1015940008080808080808080808080808080808C7
:1015A40008080808080808080808080808080808B7
:1015B40008080808080808080808080808080808A7
:1015C4000808080808080808080808080808080897
:1015D4000808080808080808080808080808080887
:1015E4000808080808080808080808080808080877
:0815F4000808080808080808AF
:00000001FF
