:100000000C942A000C9447000C9447000C9470093F
:100010000C9447000C9447000C9447000C94A008E3
:100020000C9447000C9447000C9447000C94470034
:100030000C9447000C94ED080C9447000C94470076
:100040000C9447000C9447000C9447000C94470014
:100050000C94470011241FBECFE5D8E0DEBFCDBF12
:1000600011E0A8E6B1E001C01D92A137B107E1F7A8
:1000700011E0A0E6B0E0ECE9F7E102C005900D92D6
:10008000A836B107D9F70E943A0B0C94CC0B0C940C
:100090000000EF92FF920F931F937B018C0120E0F1
:1000A00030E040E05FE40E94C50388238CF0C80183
:1000B000B70120E030E040E05FE40E94C1010E940F
:1000C00053049B01AC01205030404040504806C0D2
:1000D000C801B7010E9453049B01AC01B901CA01D8
:1000E0001F910F91FF90EF900895A0E0B0E0EBE733
:1000F000F0E00C94950BDC012B01FA019C919230FD
:1001000008F439C1EB018881823008F433C194309E
:1001100069F4843009F02FC111969C91119789815F
:10012000981709F428C1A0E6B0E025C1843009F48D
:1001300021C18230A9F4923009F01DC19A01AD01AC
:1001400088E0EA010990AE01E90109929E0181501F
:10015000C1F7E201898111969C918923818308C1AD
:10016000923009F407C112962D903C901397EB0141
:100170008A819B811496AD90BD90CD90DC901797AD
:10018000EC80FD800E811F819101281B390BB90184
:1001900037FF04C066277727621B730B6032710537
:1001A0000CF061C0121613066CF537014801062EDB
:1001B00004C096948794779467940A94D2F721E0C8
:1001C00030E040E050E004C0220F331F441F551FB1
:1001D0006A95D2F721503040404050402E213F21B7
:1001E00040235123211531054105510521F021E01E
:1001F00030E040E050E079018A01E628F72808293C
:1002000019293CC0232BD1F1260E371E350146019A
:10021000062E04C096948794779467940A94D2F734
:1002200021E030E040E050E004C0220F331F441FC3
:10023000551F6A95D2F721503040404050402A2146
:100240003B214C215D21211531054105510521F04E
:1002500021E030E040E050E059016A01A628B728CB
:10026000C828D9280BC0821593052CF01C01AA249C
:10027000BB24650103C0EE24FF24870111969C91E5
:10028000D20111968C91981709F445C0992339F041
:10029000A80197012A193B094C095D0906C0A6016E
:1002A00095012E193F09400B510B57FD08C01182D3
:1002B0003382228224833583468357831DC081E0A5
:1002C00081833382228288279927DC01821B930B4A
:1002D000A40BB50B84839583A683B7830DC0220F2F
:1002E000331F441F551F24833583468357838281E0
:1002F000938101979383828324813581468157813D
:10030000DA01C9010197A109B1098F5F9F4FAF4F72
:10031000BF4328F30BC0918333822282EA0CFB1C7B
:100320000C1D1D1DE482F5820683178383E0808304
:10033000248135814681578157FF1AC0C901AA27F8
:1003400097FDA095BA2F81709070A070B0705695EF
:10035000479537952795822B932BA42BB52B848318
:100360009583A683B7838281938101969383828349
:10037000DF0101C0D201CD01CDB7DEB7E2E10C94BF
:10038000B10BA0E2B0E0E7ECF1E00C94A10B6983C3
:100390007A838B839C832D833E834F835887E9E048
:1003A000EE2EF12CEC0EFD1ECE010196B7010E943F
:1003B00044068E010F5E1F4FCE010596B8010E94C4
:1003C00044068A8991E089278A8BC701B801AE016A
:1003D000475E5F4F0E9475000E946F05A096E6E0A1
:1003E0000C94BD0BA0E2B0E0E8EFF1E00C94A10B9F
:1003F00069837A838B839C832D833E834F835887C5
:10040000F9E0EF2EF12CEC0EFD1ECE010196B701A6
:100410000E9444068E010F5E1F4FCE010596B80163
:100420000E944406C701B801AE01475E5F4F0E94BB
:1004300075000E946F05A096E6E00C94BD0BA0E24B
:10044000B0E0E5E2F2E00C94950B69837A838B834C
:100450009C832D833E834F835887CE010196BE0136
:10046000675F7F4F0E944406CE010596BE016F5E16
:100470007F4F0E9444069985923088F089898230A6
:10048000C8F0943019F4823051F404C0843029F457
:10049000923081F480E690E0C6C0923049F420E0CA
:1004A0009A858A89981321E02A87CE010996BBC0D4
:1004B000823049F420E09A858A89981321E02A8BBA
:1004C000CE014196B0C02D843E844F8458886D88FB
:1004D0007E888F88988CEE24FF248701AA24BB2471
:1004E000650140E050E060E070E0E0E0F0E0C10174
:1004F00081709070892BE9F0E60CF71C081D191D1E
:100500009A01AB012A0D3B1D4C1D5D1D80E090E062
:10051000A0E0B0E0E614F7040805190520F481E036
:1005200090E0A0E0B0E0BA01A901480F591F6A1F8E
:100530007B1FAA0CBB1CCC1CDD1C97FE08C081E0F5
:1005400090E0A0E0B0E0A82AB92ACA2ADB2A3196B6
:10055000E032F10549F0660C771C881C991C569412
:10056000479437942794C3CFFA85EA892B893C892D
:100570008B859C85280F391F2E5F3F4F17C0CA01FE
:1005800081709070892B61F016950795F794E79428
:1005900080E090E0A0E0B0E8E82AF92A0A2B1B2BC3
:1005A00076956795579547952F5F3F4F77FDE7CF36
:1005B0000CC0440F551F661F771F17FD4160EE0CDE
:1005C000FF1C001F111F21503040403090E05907A0
:1005D00090E0690790E4790760F32B8F3C8FDB0193
:1005E000CA018F779070A070B07080349105A1051A
:1005F000B10561F447FD0AC0E114F10401051105DC
:1006000029F0405C5F4F6F4F7F4F40781A8EFE1786
:1006100011F081E08A8F4D8F5E8F6F8F78A383E01A
:10062000898FCE0149960E946F05A096E2E10C9455
:10063000B10BA8E1B0E0EFE1F3E00C949D0B69830E
:100640007A838B839C832D833E834F835887B9E0C5
:10065000EB2EF12CEC0EFD1ECE010196B7010E948F
:1006600044068E010F5E1F4FCE010596B8010E9411
:1006700044062985223008F47EC03989323010F4CE
:10068000B8017CC08A859A8989278A87243011F02D
:10069000223031F4231709F06EC060E670E06EC0BE
:1006A000343039F41D861E861F86188A1C861B86E8
:1006B00004C0323021F484E08987B7015FC02B8504
:1006C0003C858B899C89281B390B3C872B87ED84C3
:1006D000FE840F851889AD88BE88CF88D88CEA142F
:1006E000FB040C051D0540F4EE0CFF1C001F111F40
:1006F000215030403C872B8720E030E040E050E044
:1007000080E090E0A0E0B0E460E070E0EA14FB0478
:100710000C051D0540F0282B392B4A2B5B2BEA18C2
:10072000FB080C091D09B695A79597958795EE0CC2
:10073000FF1C001F111F6F5F7F4F6F31710531F775
:10074000DA01C9018F779070A070B0708034910584
:10075000A105B10561F427FD0AC0E114F10401050A
:10076000110529F0205C3F4F4F4F5F4F20782D87B8
:100770003E874F87588BBE01675F7F4FCB010E943A
:100780006F056896EAE00C94B90BA8E1B0E0EBECD9
:10079000F3E00C94A10B69837A838B839C832D8374
:1007A0003E834F83588789E0E82EF12CEC0EFD1E26
:1007B000CE010196B7010E9444068E010F5E1F4FC5
:1007C000CE010596B8010E9444068985823040F02A
:1007D0008989823028F0C701B8010E94BC0601C097
:1007E0008FEF6896E6E00C94BD0BA8E0B0E0EBEF6D
:1007F000F3E00C949E0B9B01AC0183E08983DA014A
:10080000C9018827B7FD83959927AA27BB27B82E4A
:10081000211531054105510519F482E089833AC05B
:100820008823A9F0203080E0380780E0480780E87E
:10083000580729F460E070E080E09FEC30C0EE24BF
:10084000FF248701E21AF30A040B150B02C0790199
:100850008A018EE1C82ED12CDC82CB82ED82FE8211
:100860000F831887C801B7010E9420050197181649
:10087000190684F4082E04C0EE0CFF1C001F111F83
:100880000A94D2F7ED82FE820F831887C81AD90A1C
:10089000DC82CB82BA82CE0101960E946F05289637
:1008A000E9E00C94BA0BACE0B0E0E9E5F4E00C94BC
:1008B000A50B69837A838B839C83CE010196BE014D
:1008C0006B5F7F4F0E9444068D81823061F18230E0
:1008D00050F1843021F48E81882351F12EC02F8174
:1008E000388537FD20C06E812F3131051CF066231D
:1008F000F9F023C08EE190E0821B930B29853A85A5
:100900004B855C8504C056954795379527958A9504
:10091000D2F76623B1F050954095309521953F4F21
:100920004F4F5F4F0EC020E030E040E050E009C084
:100930002FEF3FEF4FEF5FE704C020E030E040E0F3
:1009400050E8B901CA012C96E2E00C94C10BA8E072
:10095000B0E0EDEAF4E00C949D0B7B018C01611595
:1009600071058105910519F482E0898360C083E0F7
:1009700089838EE1C82ED12CDC82CB82ED82FE826F
:100980000F831887C801B7010E942005FC01319729
:10099000F7FF3BC0222733272E1B3F0B570168016F
:1009A000022E04C0D694C794B794A7940A94D2F7A1
:1009B00040E050E060E070E081E090E0A0E0B0E076
:1009C00004C0880F991FAA1FBB1F2A95D2F7019751
:1009D000A109B1098E219F21A023B1230097A10570
:1009E000B10521F041E050E060E070E04A295B2968
:1009F0006C297D294D835E836F8378878EE190E03B
:100A00008E1B9F0B9C838B8312C0309781F00E2E20
:100A100004C0EE0CFF1C001F111F0A94D2F7ED82D8
:100A2000FE820F831887CE1ADF0ADC82CB821A82FD
:100A3000CE0101960E946F052896EAE00C94B90B4E
:100A4000EF92FF920F931F937B018C0180E0E816D9
:100A500080E0F80681E0080780E0180788F48FEF4F
:100A6000E816F1040105110531F028F088E090E066
:100A7000A0E0B0E017C080E090E0A0E0B0E012C0DD
:100A800080E0E81680E0F80680E0080781E01807BB
:100A900028F088E190E0A0E0B0E004C080E190E0C0
:100AA000A0E0B0E020E230E040E050E0281B390B4D
:100AB0004A0B5B0B04C016950795F794E7948A954B
:100AC000D2F7F701E859FF4F8081281B310941090E
:100AD0005109C9011F910F91FF90EF900895DF9286
:100AE000EF92FF920F931F93FC01E480F580068143
:100AF0001781D1808081823048F480E090E0A0E1CD
:100B0000B0E0E82AF92A0A2B1B2BA5C0843009F48F
:100B10009FC0823021F4EE24FF24870105C0E11438
:100B2000F1040105110519F4E0E0F0E096C06281DE
:100B300073819FEF623879070CF05BC022E83FEFCA
:100B4000261B370B2A3131052CF020E030E040E045
:100B500050E02AC0B801A701022E04C0769567951F
:100B6000579547950A94D2F781E090E0A0E0B0E075
:100B700004C0880F991FAA1FBB1F2A95D2F701979F
:100B8000A109B1098E219F21A023B1230097A105BE
:100B9000B10521F081E090E0A0E0B0E09A01AB0166
:100BA000282B392B4A2B5B2BDA01C9018F779070E8
:100BB000A070B07080349105A105B10539F427FF0C
:100BC00009C0205C3F4F4F4F5F4F04C0215C3F4F37
:100BD0004F4F5F4FE0E0F0E02030A0E03A07A0E0A8
:100BE0004A07A0E45A0710F0E1E0F0E079018A0139
:100BF00027C06038710564F5FB01E158FF4FD8014B
:100C0000C7018F779070A070B07080349105A105F6
:100C1000B10539F4E7FE0DC080E490E0A0E0B0E05B
:100C200004C08FE390E0A0E0B0E0E80EF91E0A1FD8
:100C30001B1F17FF05C016950795F794E79431968B
:100C400087E016950795F794E7948A95D1F705C044
:100C5000EE24FF248701EFEFF0E06E2F6795662703
:100C60006795902F9F77D794DD24D7948E2F869504
:100C7000492F462B582F5D29B701CA011F910F91AB
:100C8000FF90EF90DF900895FC01DB0140815181DE
:100C90002281622F6F7770E0221F2227221F93810B
:100CA000892F880F822B282F30E0991F9927991FB1
:100CB00011969C93119721153105A9F54115510500
:100CC0006105710511F482E037C082E89FEF139649
:100CD0009C938E9312979A01AB0167E0220F331F0A
:100CE000441F551F6A95D1F783E08C930DC0220FE6
:100CF000331F441F551F12968D919C911397019796
:100D000013969C938E931297203080E0380780E0F2
:100D1000480780E4580758F314962D933D934D935C
:100D20005C93179708952F3F310579F441155105CC
:100D30006105710519F484E08C93089564FF03C084
:100D400081E08C9312C01C9210C02F573040139634
:100D50003C932E93129783E08C9387E0440F551FAA
:100D6000661F771F8A95D1F7706414964D935D9333
:100D70006D937C93179708951F93DC01FB019C9161
:100D8000923008F447C08081823008F443C0943028
:100D900051F411961C91843099F58181682F70E08F
:100DA000611B71093FC0843021F0923031F48230F0
:100DB000B9F18181882389F12DC011961C91119779
:100DC0008230F1F081811817D9F412962D913C915F
:100DD0001397828193818217930794F0281739071C
:100DE000BCF014968D919D910D90BC91A02D248105
:100DF000358146815781281739074A075B0718F460
:100E0000112341F00AC082179307A407B50740F4E5
:100E1000112319F061E070E005C06FEF7FEF02C0B1
:100E200060E070E0CB011F910895E3980895282FAA
:100E30008FB78F778FBFE199FECF9FBB2EBBE09A14
:100E40008DB3861741F09FBB2EBB6DBBE29AE19A32
:100E50008FB780688FBF0895282F8FB78F778FBF88
:100E6000E199FECF9FBB2EBBE09A8FB780688FBF02
:100E70008DB30895886081BD089588E181BD81E0CA
:100E80008A95F1F711BC0895683050F4843040F42D
:100E9000813029F1813028F0823079F1833081F07E
:100EA0000895413009F44DC02AB381E090E002C0BA
:100EB000880F991F6A95E2F7809582238ABB08956F
:100EC000413009F449C021B381E090E002C0880FAD
:100ED000991F6A95E2F78095822381BB089541307E
:100EE00029F127B381E090E002C0880F991F6A952D
:100EF000E2F78095822387BB0895413061F024B3E7
:100F000081E090E002C0880F991F6A95E2F7809512
:100F1000822384BB089524B381E090E002C0880F4F
:100F2000991F6A95E2F7282B24BB089527B381E027
:100F300090E002C0880F991F6A95E2F7282B27BB23
:100F400008952AB381E090E002C0880F991F6A9546
:100F5000E2F7282B2ABB089521B381E090E002C07C
:100F6000880F991F6A95E2F7282B21BB08956830F6
:100F700050F4843040F4813029F1813028F08230FF
:100F800079F1833081F00895413009F44DC02BB3DD
:100F900081E090E002C0880F991F6A95E2F7809582
:100FA00082238BBB0895413009F449C022B381E00C
:100FB00090E002C0880F991F6A95E2F7809582231E
:100FC00082BB0895413029F128B381E090E002C04E
:100FD000880F991F6A95E2F78095822388BB089550
:100FE000413061F025B381E090E002C0880F991F85
:100FF0006A95E2F78095822385BB089525B381E049
:1010000090E002C0880F991F6A95E2F7282B25BB54
:10101000089528B381E090E002C0880F991F6A9577
:10102000E2F7282B28BB08952BB381E090E002C0A3
:10103000880F991F6A95E2F7282B2BBB089522B3DE
:1010400081E090E002C0880F991F6A95E2F7282B93
:1010500022BB0895683050F4843040F48130D1F0E0
:10106000813030F08230F9F0833059F080E008951B
:1010700089B390E002C0959587956A95E2F78170F3
:10108000089580B390E002C0959587956A95E2F740
:101090008170089586B390E002C0959587956A9512
:1010A000E2F78170089583B390E002C0959587952B
:1010B0006A95E2F781700895843040F4813049F0F8
:1010C000813028F0823049F0833029F008956ABBDE
:1010D000089567BB089561BB089564BB089584308B
:1010E00040F4813049F0813028F0823049F083307B
:1010F00029F008956BBB089568BB089562BB0895FD
:1011000065BB0895843040F4813051F0813030F077
:10111000823051F0833031F080E0089589B3089532
:1011200086B3089580B3089583B3089512BE8CBF2B
:10113000BB9A8AE683BF089512BE1CBE13BE0895F3
:101140001F920F920FB60F9211242F933F934F933C
:101150005F936F937F938F939F93AF93BF93EF931F
:10116000FF93E0916801F0916901309709F00995CA
:10117000FF91EF91BF91AF919F918F917F916F916F
:101180005F914F913F912F910F900FBE0F901F9045
:101190001895FC01808182BF8CE08FBD8581880F0E
:1011A000880F880F9481892B8EBD828193819BBD8E
:1011B0008ABD89B7806189BF08951FBC1EBC89B7ED
:1011C0008F7E89BF08959093690180936801089587
:1011D00090936B0180936A0108951F920F920FB64E
:1011E0000F9211242F933F934F935F936F937F93AD
:1011F0008F939F93AF93BF93EF93FF93E0916A0117
:10120000F0916B01309709F00995FF91EF91BF9133
:10121000AF919F918F917F916F915F914F913F918E
:101220002F910F900FBE0F901F9018959B01AC014E
:1012300082E08BB988E98AB986E880BD220F331F26
:10124000441F551F220F331F441F551F220F331FEA
:10125000441F551F60E472E48FE090E00E94730B1E
:101260002150304030BD29B908955D9BFECF8CB927
:1012700008958CB10895DC01EC91EE2359F080E0E3
:101280005D9BFECFECB98F5FFD01E80FF11DE081A2
:10129000EE23B1F70895FC0197B180818295880F04
:1012A000880F807C9F73892B87B996B18181806874
:1012B0009877892B86B9089597B1907E97B997B1A1
:1012C0008770892B87B9369A349BFECF349A24B124
:1012D00035B1C901089590936D0180936C01089513
:1012E0001F920F920FB60F9211242F933F934F939B
:1012F0005F936F937F938F939F93AF93BF93EF937E
:10130000FF93E0916C01F0916D01309709F0099520
:10131000FF91EF91BF91AF919F918F917F916F91CD
:101320005F914F913F912F910F900FBE0F901F90A3
:101330001895BA9884B7806484BF8BB780628BBFDE
:10134000089582E00E945C09A0E0B0E0BC01CD01FC
:1013500026E930E040E050E00E94540B0E94A704D0
:101360002AE037ED43E250E40E941F0220E030ED16
:101370004FEB54E40E9419030E944900DC01CB01A9
:1013800008951F93162F882331F0813091F1823018
:1013900011F11F91089581E060E040E00E94B707DD
:1013A00081E060E041E00E94B707612F70E088278C
:1013B00077FD8095982F0E94F50323E333E343E202
:1013C00050E40E941F020E944900DC01CB010E94F0
:1013D00096081F91089581E060E040E00E94B70701
:1013E00081E061E040E00E94B7070E949C081F91E5
:1013F000089561E041E00E94B70781E061E040E0CC
:10140000D2CF81E060E041E00E94440781E061E0EA
:1014100041E00E94440781E060E040E00E94B7079D
:1014200081E061E040E00E94B70781E063E040E0D6
:101430000E94B7070895809170018F5F80937001BB
:101440008E3009F008951092700181E080936F0151
:10145000089581E080936E0108950895DF93CF93FE
:1014600000D0CDB7DEB78FB780688FBF60E875E278
:1014700080E090E00E9416098DE29AE00E94E80860
:1014800083E089838A83CE0101960E944B090E94E2
:10149000150780E090E060E00E9417070E94010AB3
:1014A0000E94990989E29AE00E946B090F900F90BF
:1014B000CF91DF910895982F80916E01813021F0B6
:1014C000892F0E94350908958BE90E9435090895F6
:1014D0001F930E94A109182F833338F08B3929F00C
:1014E00080E00E943A071F91089580E090E060E05C
:1014F0000E941707812F0E9435091F9108951F939D
:101500000E94A109182F833358F0873938F480914D
:101510006F018130A1F0812F0E9435091F9108953C
:1015200080E090E060E00E9417070E94DD08812FB4
:101530000E943509A99810926F011F91089580E0CB
:1015400090E062E00E94170710926F010E94DD0890
:1015500080EA0E9435091F9108950F931F93DF932E
:10156000CF9300D000D000D0CDB7DEB78C0185E09E
:101570008D8381E08E8381E090E09A83898383E08C
:1015800092E09C838B83CE0101960E94C908C8011A
:101590000E94E30826960FB6F894DEBF0FBECDBFBB
:1015A000CF91DF911F910F9108951F93DF93CF93F8
:1015B00000D000D000D0CDB7DEB70E94A109182F0F
:1015C000843178F18832B8F1833308F443C0873925
:1015D000F0F480E090E061E00E941707812F0E9404
:1015E00035091092700185E08D8381E08E8381E062
:1015F00090E09A83898383E092E09C838B83CE0181
:1016000001960E94C9088BE19AE00E94E3082696A1
:101610000FB6F894DEBF0FBECDBFCF91DF911F9103
:10162000089582E060E00E94C109812F0E9435097F
:1016300010926E01ECCF65E0869FB0011124759584
:10164000679580E00E94C109812F0E9435091092A0
:101650006E01DDCF80E064E60E94C10980916E01D9
:10166000813021F0812F0E943509D1CF8BE90E9472
:101670003509CDCF0E942E0A80E090E00E942C0711
:10168000813051F0813058F40E94D50A80E090E01A
:101690000E942C078130B1F70E947F0AEDCF823083
:1016A00059F70E94680AE8CF629FD001739FF0014A
:1016B000829FE00DF11D649FE00DF11D929FF00DE2
:1016C000839FF00D749FF00D659FF00D9927729F19
:1016D000B00DE11DF91F639FB00DE11DF91FBD01A4
:1016E000CF0111240895A1E21A2EAA1BBB1BFD01F4
:1016F0000DC0AA1FBB1FEE1FFF1FA217B307E407F1
:10170000F50720F0A21BB30BE40BF50B661F771F48
:10171000881F991F1A9469F7609570958095909528
:101720009B01AC01BD01CF0108952F923F924F92D2
:101730005F926F927F928F929F92AF92BF92CF9261
:10174000DF92EF92FF920F931F93CF93DF93CDB76A
:10175000DEB7CA1BDB0B0FB6F894DEBF0FBECDBFE2
:1017600009942A88398848885F846E847D848C84B3
:101770009B84AA84B984C884DF80EE80FD800C81BC
:101780001B81AA81B981CE0FD11D0FB6F894DEBF9F
:0C1790000FBECDBFED010895F894FFCF0F
:10179C00000000000000000000010202030303032C
:1017AC0004040404040404040505050505050505E5
:1017BC0005050505050505050606060606060606C5
:1017CC0006060606060606060606060606060606AD
:1017DC000606060606060606070707070707070795
:1017EC00070707070707070707070707070707077D
:1017FC00070707070707070707070707070707076D
:10180C00070707070707070707070707070707075C
:10181C000707070707070707080808080808080844
:10182C00080808080808080808080808080808082C
:10183C00080808080808080808080808080808081C
:10184C00080808080808080808080808080808080C
:10185C0008080808080808080808080808080808FC
:10186C0008080808080808080808080808080808EC
:10187C0008080808080808080808080808080808DC
:10188C0008080808080808080808080808080808CC
:08189C00080808080808080804
:00000001FF
